:10000000803102288731EE2F84310D2C8431102C61
:100010008431132C8431162C8431192C84311C2CFE
:1000200084311F2C8431222C8431252C8431282CBE
:100030008331DE2B8331E12B8331E42B8331E72BBA
:100040008331EA2B8331ED2B8331F02B8331F32B7A
:1006220022000D158D150800013400340034003409
:1006320022008D140D158D15080022000D158D1543
:100642000D178D17080022008D140D150D168D162D
:100652008D17080022008D140D158D150D168D179E
:10066200080022008D148D150D160D178D17080028
:10067200701C3E2B22008C15080022008C110800F1
:10068200701C462B22000C15080022000C110800D9
:1006920022008D140D158D150D168D160D170800DF
:1006A20022008D148D150D168D160D178D1708004D
:1006B20022008D140D158D150D160D178D170800BE
:1006C20022008D100D118D110D128D120D138D132F
:1006D200080022008D140D158D150D168D160D179F
:1006E2008D17080022000F148F140F158F150F1687
:1006F2008F160F178F1708000030F000F1008331BA
:10070200412383310030F000F100833139238331FA
:100712008331612308002000AA01A61F972BA50997
:10072200A609A50A0319A60AAA01AA0A2508F00021
:100732002608F100F2018E30A8002808F3002A08EA
:10074200A9002908F4008431F92470082000A500CA
:100752007108A6007208A70008000030FB000030F4
:10076200FA000030F9000030F800701CC02B740849
:10077200F8077508F93D7608FA3D7708FB3D013028
:10078200F435F50DF60DF70D890BC12B0130F3365B
:10079200F20CF10CF00C890BC82B73087204710473
:1007A2007004031DB62B7B08F3007A08F200790867
:1007B200F1007808F0000800F92B22000F10080061
:1007C20022008F10080022000F11080022008F1152
:1007D200080022000F12080022008F1208002200D7
:1007E2000F13080022008F130800833173230800BF
:1007F2007808003A0319FE2BF62B7708FF3E031CFC
:10080200F62B8400083004020318F62B80310435DD
:10081200183E820008002E2C8331492308008331C0
:100822001123080083312423080083312B2308007D
:1008320083311E2308008331322308008331512380
:10084200080083311923080083316A2308008331A9
:10085200592308008331612308007108003A031903
:10086200332C2B2C700884000A30040203182B2C22
:1008720080310435043E82000800843178248431BA
:100882007D082000A6007C08A50083318C238431DA
:1008920020002508AE002608AF002708B00000306F
:1008A200AB002030AC004130AD0087313A278431B3
:1008B20020002B08BE002C08BF002D08C00000300D
:1008C200BB000030BC004730BD008531E4258431D7
:1008D20020003B08CB003C08CC003D08CD00853110
:1008E2005D2520004C08DA004B08D90008002000E2
:1008F2006A08F3006908F2006808F1006708F0006E
:100902004130F700C630F6004E30F5006D30F4008D
:100912008331AE23843173082000EA007208E900B3
:100922007108E8007008E7003930E7073030E83D29
:100932000030E93D0030EA3D6708A0006808A100E8
:100942006908A2006A08A3001030A400A337A20C11
:10095200A10CA00CA40BA72CFF302005FC007F30BB
:100962002105FD000800F601F31FBE2CF209F30970
:10097200F20A0319F30AF601F60AF11FC52CF0096F
:10098200F109F00A0319F10A700871040319EC2C39
:10099200F501F50AF11BD72C0130F035F10D890B69
:1009A200CE2C0130F4007408F507CB2C71087302C9
:1009B200031DDD2C70087202031CE32C7008F20286
:1009C2007108F33B0130F136F00C890BE42C013055
:1009D200F502031DD72C76080319F42CF209F3094A
:1009E200F20A0319F30A7308F1007208F000080012
:1009F20073080319012D720871047004031D122D6E
:100A02000030F0000030F1000030F2000800013048
:100A1200F5007508F3070130F236F10CF00C890B82
:100A22000D2DFE30720503192B2D082D0130F50016
:100A32007508F3070130F007003003180130F107A1
:100A4200003003180130F2070130F236F10CF00CDD
:100A5200890B262DFF3072050319382D172D013011
:100A6200F3020130F035F10DF20D890B332DF11B3C
:100A72003E2D023073020318302D7318462DFF30BD
:100A8200F0057F30F105FF30F2050310F30C730817
:100A9200F500F601F7011030F535F60DF70D890B6B
:100AA2004D2D7508F0047608F1047708F2047408F5
:100AB20003190800F217080020004B08CF004C0869
:100AC200D0004D08D1000310500D510DD200520834
:100AD200D8005808031D762D0030CE000030CD001E
:100AE2000030CC000030CB0008004B08CF004C088F
:100AF200D0004D08D1001730D136D00CCF0C890B65
:100B02007D2D4F08D2005208D300CC17FF30CB0501
:100B1200FF30CC050030CD054B08D4004C08D50081
:100B22004D08D600D7018E30D802D81FB42D5808F0
:100B3200803A8F3E0318A62D0030CE000030CD0043
:100B42000030CC000030CB0008000130D736D60C84
:100B5200D50CD40C890BA72D0130CF004F08D80734
:100B62000319CD2DA62D18305802031CCA2D0030B2
:100B7200CE000030CD000030CC000030CB000800A9
:100B82000130D435D50DD60DD70D890BC22D0130CC
:100B9200D8025808031DC12D53080319DB2DD409AF
:100BA200D509D609D709D40A0319D50A0319D60AD1
:100BB2000319D70A5708CE005608CD005508CC00B5
:100BC2005408CB00080020003E08C1003F08C200C4
:100BD2004008C3000310420D430DC4004408C9007D
:100BE2004908031DFB2D0030BB000030BC00003063
:100BF200BD0008003B08C1003C08C2003D08C3001C
:100C02000310420D430DC4004408CA004A08031DE4
:100C1200112E0030BB000030BC000030BD000800C7
:100C22000030C6000030C7000030C80089304A07D3
:100C3200C1004108C9023E08C1003F08C200400885
:100C4200C3001030C336C20CC10C890B232E4108DD
:100C5200C4004408CA003B08C1003C08C2003D0869
:100C6200C3001030C336C20CC10C890B332E4108AD
:100C7200C4004408CA068030C1004108CA05BF1733
:100C8200FF30BE05FF30BF050030C005BC17FF3086
:100C9200BB05FF30BC050030BD051830C10041085E
:100CA200C5000130C635C70DC80D890B532E3D084E
:100CB2004002031D622E3C083F02031D622E3B08C8
:100CC2003E02031C6B2E3B08BE023C08BF3B3D08A4
:100CD200C03B46140130BE35BF0DC00D890B6C2ED2
:100CE2000130C502031D522E4608F0004708F100EC
:100CF2004808F2004908C1004108F3004A08C2004E
:100D02004208F4008431F92470082000BB00710805
:100D1200BC007208BD0008002000DD01DE01E30115
:100D2200E401E501E60121000C118C118F018D0116
:100D32000E148E1483317323863120008E1C0E1CF8
:100D4200A72E0130E5000030E600DA2E0E1C8E1CC4
:100D5200AF2E0130E3000030E400DA2E63036404B6
:100D6200031DDA2E65036604031DDA2E620860068F
:100D7200031DBD2E61085F06031DD62E0130DD075F
:100D82000030DE3D0930F0000030F1005E08F30073
:100D92005D08F2008431B42486317108F8007008CD
:100DA200F7008331DD2386312000E301E401E50110
:100DB200E601630364040319E62E84313E2486317E
:100DC20020005A08E0005908DF0065036604031991
:100DD200F22E84313E24863120005A08E20059085E
:100DE200E10083317D2386310130F0000030F100D3
:100DF20083314123863120006008F1005F08F00052
:100E020084310C2486311A302000DC00F830DB00FB
:100E1200DB0B092FDC0B092F0000833161238631A4
:100E22000030F000F1008331412386310130F000BF
:100E32000030F10083313923863120006208F1004D
:100E42006108F00084310C2486311A302000DC0065
:100E5200F830DB00DB0B2B2FDC0B2B2F0000833158
:100E6200612386310030F000F10083314123863165
:100E72009E2E20002B08B1002C08B2002D08B300D2
:100E82000310320D330DB4003408B5003508031DCC
:100E9200512F0030AB000030AC000030AD00080034
:100EA2002E08B1002F08B2003008B3000310320D33
:100EB200330DB4003408BA003A08031D672F00301E
:100EC200AB000030AC000030AD0008003A087B3EB9
:100ED200B1003108B5072B08B1002C08B2002D086B
:100EE200B3001030B336B20CB10C890B732F31083A
:100EF200B4003408BA002E08B1002F08B20030083E
:100F0200B3001030B336B20CB10C890B832F310809
:100F1200B4003408BA068030B1003108BA05AC1703
:100F2200AF17FF30AE05FF30AF050030B00500301F
:100F3200B6000030B7000030B8000730B100310809
:100F4200B9002B1CAA2F2E08B6072F08B73D300870
:100F5200B83D0130AD36AC0CAB0C890BAB2F013078
:100F6200AE35AF0DB00D890BB12F0130B902031DA3
:100F7200A22F0930B1003108B9002B1CC62F2E0850
:100F8200B6072F08B73D3008B83D0130AD36AC0C7E
:100F9200AB0C890BC72F0130B836B70CB60C890BD6
:100FA200CD2F0130B902031DBE2F3608F0003708DD
:100FB200F1003808F2003508B1003108F3003A08B0
:100FC200B2003208F4008431F92470082000AB002A
:100FD2007108AC007208AD00080083311523873117
:100FE200E700833116238731E800833117238731E5
:0E0FF200E90083311823EA00200086318D2E9D
:020000040001F9
:04000E00E2FFFFFE10
:00000001FF
